{
  "address": "0xeBf9885aDDb75ba9Dbb757B2d1C953E44aF04f5b",
  "abi": [
    {
      "inputs": [
        {
          "internalType": "address",
          "name": "_owner",
          "type": "address"
        },
        {
          "internalType": "address",
          "name": "_eggs",
          "type": "address"
        }
      ],
      "stateMutability": "nonpayable",
      "type": "constructor"
    },
    {
      "inputs": [],
      "name": "AlreadyExists",
      "type": "error"
    },
    {
      "inputs": [],
      "name": "NoEggs",
      "type": "error"
    },
    {
      "inputs": [],
      "name": "NoZeroAddress",
      "type": "error"
    },
    {
      "inputs": [],
      "name": "WrongEtherSent",
      "type": "error"
    },
    {
      "anonymous": false,
      "inputs": [],
      "name": "AntCreated",
      "type": "event"
    },
    {
      "anonymous": false,
      "inputs": [],
      "name": "AntSold",
      "type": "event"
    },
    {
      "anonymous": false,
      "inputs": [
        {
          "indexed": true,
          "internalType": "address",
          "name": "owner",
          "type": "address"
        },
        {
          "indexed": true,
          "internalType": "address",
          "name": "approved",
          "type": "address"
        },
        {
          "indexed": true,
          "internalType": "uint256",
          "name": "tokenId",
          "type": "uint256"
        }
      ],
      "name": "Approval",
      "type": "event"
    },
    {
      "anonymous": false,
      "inputs": [
        {
          "indexed": true,
          "internalType": "address",
          "name": "owner",
          "type": "address"
        },
        {
          "indexed": true,
          "internalType": "address",
          "name": "operator",
          "type": "address"
        },
        {
          "indexed": false,
          "internalType": "bool",
          "name": "approved",
          "type": "bool"
        }
      ],
      "name": "ApprovalForAll",
      "type": "event"
    },
    {
      "anonymous": false,
      "inputs": [
        {
          "indexed": false,
          "internalType": "address",
          "name": "",
          "type": "address"
        },
        {
          "indexed": false,
          "internalType": "uint256",
          "name": "",
          "type": "uint256"
        }
      ],
      "name": "EggsBought",
      "type": "event"
    },
    {
      "anonymous": false,
      "inputs": [
        {
          "indexed": true,
          "internalType": "address",
          "name": "previousOwner",
          "type": "address"
        },
        {
          "indexed": true,
          "internalType": "address",
          "name": "newOwner",
          "type": "address"
        }
      ],
      "name": "OwnershipTransferred",
      "type": "event"
    },
    {
      "anonymous": false,
      "inputs": [
        {
          "indexed": true,
          "internalType": "address",
          "name": "from",
          "type": "address"
        },
        {
          "indexed": true,
          "internalType": "address",
          "name": "to",
          "type": "address"
        },
        {
          "indexed": true,
          "internalType": "uint256",
          "name": "tokenId",
          "type": "uint256"
        }
      ],
      "name": "Transfer",
      "type": "event"
    },
    {
      "inputs": [
        {
          "internalType": "uint256",
          "name": "",
          "type": "uint256"
        }
      ],
      "name": "allAntsIds",
      "outputs": [
        {
          "internalType": "uint256",
          "name": "",
          "type": "uint256"
        }
      ],
      "stateMutability": "view",
      "type": "function"
    },
    {
      "inputs": [
        {
          "internalType": "uint256",
          "name": "",
          "type": "uint256"
        }
      ],
      "name": "antToLastTimeEggsCreated",
      "outputs": [
        {
          "internalType": "uint256",
          "name": "",
          "type": "uint256"
        }
      ],
      "stateMutability": "view",
      "type": "function"
    },
    {
      "inputs": [
        {
          "internalType": "uint256",
          "name": "",
          "type": "uint256"
        }
      ],
      "name": "antToOwner",
      "outputs": [
        {
          "internalType": "address",
          "name": "",
          "type": "address"
        }
      ],
      "stateMutability": "view",
      "type": "function"
    },
    {
      "inputs": [],
      "name": "antsCreated",
      "outputs": [
        {
          "internalType": "uint256",
          "name": "",
          "type": "uint256"
        }
      ],
      "stateMutability": "view",
      "type": "function"
    },
    {
      "inputs": [
        {
          "internalType": "address",
          "name": "to",
          "type": "address"
        },
        {
          "internalType": "uint256",
          "name": "tokenId",
          "type": "uint256"
        }
      ],
      "name": "approve",
      "outputs": [],
      "stateMutability": "nonpayable",
      "type": "function"
    },
    {
      "inputs": [
        {
          "internalType": "address",
          "name": "owner",
          "type": "address"
        }
      ],
      "name": "balanceOf",
      "outputs": [
        {
          "internalType": "uint256",
          "name": "",
          "type": "uint256"
        }
      ],
      "stateMutability": "view",
      "type": "function"
    },
    {
      "inputs": [
        {
          "internalType": "uint256",
          "name": "_amount",
          "type": "uint256"
        }
      ],
      "name": "buyEggs",
      "outputs": [],
      "stateMutability": "payable",
      "type": "function"
    },
    {
      "inputs": [],
      "name": "chanceOfDying",
      "outputs": [
        {
          "internalType": "uint256",
          "name": "",
          "type": "uint256"
        }
      ],
      "stateMutability": "view",
      "type": "function"
    },
    {
      "inputs": [
        {
          "internalType": "uint256",
          "name": "_price",
          "type": "uint256"
        }
      ],
      "name": "changeEggPrice",
      "outputs": [],
      "stateMutability": "nonpayable",
      "type": "function"
    },
    {
      "inputs": [],
      "name": "createAnt",
      "outputs": [],
      "stateMutability": "nonpayable",
      "type": "function"
    },
    {
      "inputs": [
        {
          "internalType": "uint256",
          "name": "_antId",
          "type": "uint256"
        }
      ],
      "name": "createEgg",
      "outputs": [],
      "stateMutability": "nonpayable",
      "type": "function"
    },
    {
      "inputs": [],
      "name": "eggPrice",
      "outputs": [
        {
          "internalType": "uint256",
          "name": "",
          "type": "uint256"
        }
      ],
      "stateMutability": "view",
      "type": "function"
    },
    {
      "inputs": [],
      "name": "eggs",
      "outputs": [
        {
          "internalType": "contract IEgg",
          "name": "",
          "type": "address"
        }
      ],
      "stateMutability": "view",
      "type": "function"
    },
    {
      "inputs": [],
      "name": "eggsCreationMaxNumber",
      "outputs": [
        {
          "internalType": "uint256",
          "name": "",
          "type": "uint256"
        }
      ],
      "stateMutability": "view",
      "type": "function"
    },
    {
      "inputs": [],
      "name": "getAntsCreated",
      "outputs": [
        {
          "internalType": "uint256",
          "name": "",
          "type": "uint256"
        }
      ],
      "stateMutability": "view",
      "type": "function"
    },
    {
      "inputs": [
        {
          "internalType": "uint256",
          "name": "tokenId",
          "type": "uint256"
        }
      ],
      "name": "getApproved",
      "outputs": [
        {
          "internalType": "address",
          "name": "",
          "type": "address"
        }
      ],
      "stateMutability": "view",
      "type": "function"
    },
    {
      "inputs": [],
      "name": "getContractBalance",
      "outputs": [
        {
          "internalType": "uint256",
          "name": "",
          "type": "uint256"
        }
      ],
      "stateMutability": "view",
      "type": "function"
    },
    {
      "inputs": [
        {
          "internalType": "address",
          "name": "owner",
          "type": "address"
        },
        {
          "internalType": "address",
          "name": "operator",
          "type": "address"
        }
      ],
      "name": "isApprovedForAll",
      "outputs": [
        {
          "internalType": "bool",
          "name": "",
          "type": "bool"
        }
      ],
      "stateMutability": "view",
      "type": "function"
    },
    {
      "inputs": [],
      "name": "name",
      "outputs": [
        {
          "internalType": "string",
          "name": "",
          "type": "string"
        }
      ],
      "stateMutability": "view",
      "type": "function"
    },
    {
      "inputs": [],
      "name": "owner",
      "outputs": [
        {
          "internalType": "address",
          "name": "",
          "type": "address"
        }
      ],
      "stateMutability": "view",
      "type": "function"
    },
    {
      "inputs": [
        {
          "internalType": "uint256",
          "name": "tokenId",
          "type": "uint256"
        }
      ],
      "name": "ownerOf",
      "outputs": [
        {
          "internalType": "address",
          "name": "",
          "type": "address"
        }
      ],
      "stateMutability": "view",
      "type": "function"
    },
    {
      "inputs": [],
      "name": "renounceOwnership",
      "outputs": [],
      "stateMutability": "nonpayable",
      "type": "function"
    },
    {
      "inputs": [
        {
          "internalType": "address",
          "name": "from",
          "type": "address"
        },
        {
          "internalType": "address",
          "name": "to",
          "type": "address"
        },
        {
          "internalType": "uint256",
          "name": "tokenId",
          "type": "uint256"
        }
      ],
      "name": "safeTransferFrom",
      "outputs": [],
      "stateMutability": "nonpayable",
      "type": "function"
    },
    {
      "inputs": [
        {
          "internalType": "address",
          "name": "from",
          "type": "address"
        },
        {
          "internalType": "address",
          "name": "to",
          "type": "address"
        },
        {
          "internalType": "uint256",
          "name": "tokenId",
          "type": "uint256"
        },
        {
          "internalType": "bytes",
          "name": "data",
          "type": "bytes"
        }
      ],
      "name": "safeTransferFrom",
      "outputs": [],
      "stateMutability": "nonpayable",
      "type": "function"
    },
    {
      "inputs": [],
      "name": "secondsToWaitAfterEggCreation",
      "outputs": [
        {
          "internalType": "uint256",
          "name": "",
          "type": "uint256"
        }
      ],
      "stateMutability": "view",
      "type": "function"
    },
    {
      "inputs": [
        {
          "internalType": "uint256",
          "name": "_antId",
          "type": "uint256"
        }
      ],
      "name": "sellAnt",
      "outputs": [],
      "stateMutability": "nonpayable",
      "type": "function"
    },
    {
      "inputs": [
        {
          "internalType": "address",
          "name": "operator",
          "type": "address"
        },
        {
          "internalType": "bool",
          "name": "approved",
          "type": "bool"
        }
      ],
      "name": "setApprovalForAll",
      "outputs": [],
      "stateMutability": "nonpayable",
      "type": "function"
    },
    {
      "inputs": [
        {
          "internalType": "bytes4",
          "name": "interfaceId",
          "type": "bytes4"
        }
      ],
      "name": "supportsInterface",
      "outputs": [
        {
          "internalType": "bool",
          "name": "",
          "type": "bool"
        }
      ],
      "stateMutability": "view",
      "type": "function"
    },
    {
      "inputs": [],
      "name": "symbol",
      "outputs": [
        {
          "internalType": "string",
          "name": "",
          "type": "string"
        }
      ],
      "stateMutability": "view",
      "type": "function"
    },
    {
      "inputs": [
        {
          "internalType": "uint256",
          "name": "tokenId",
          "type": "uint256"
        }
      ],
      "name": "tokenURI",
      "outputs": [
        {
          "internalType": "string",
          "name": "",
          "type": "string"
        }
      ],
      "stateMutability": "view",
      "type": "function"
    },
    {
      "inputs": [
        {
          "internalType": "address",
          "name": "from",
          "type": "address"
        },
        {
          "internalType": "address",
          "name": "to",
          "type": "address"
        },
        {
          "internalType": "uint256",
          "name": "tokenId",
          "type": "uint256"
        }
      ],
      "name": "transferFrom",
      "outputs": [],
      "stateMutability": "nonpayable",
      "type": "function"
    },
    {
      "inputs": [
        {
          "internalType": "address",
          "name": "newOwner",
          "type": "address"
        }
      ],
      "name": "transferOwnership",
      "outputs": [],
      "stateMutability": "nonpayable",
      "type": "function"
    }
  ],
  "transactionHash": "0x58e48f7d84ac8b573c9358cab3531c7bf22a1e91d866bf5eb8272287d4c29b91",
  "args": [
    "0x0E85cE16523Dca99f3EDc4f1c70738B3b35480c6",
    "0x3866aC37A7Fee35a227A2F3A5B1850390e09C8ed"
  ],
  "solcInputHash": "ed8757ddd2bc69b0e08f440dfd22b246",
  "bytecode": "0x60a0604052662386f26fc10000600a556000600c556014600d55610258600e556005600f553480156200003157600080fd5b50604051620022b4380380620022b4833981016040819052620000549162000216565b604080518082018252600b81526a43727970746f20416e747360a81b602080830191825283518085019094526004845263414e545360e01b908401528151919291620000a39160009162000153565b508051620000b990600190602084019062000153565b505050620000d6620000d0620000fd60201b60201c565b62000101565b6001600755620000e68262000101565b60601b6001600160601b031916608052506200028b565b3390565b600680546001600160a01b038381166001600160a01b0319831681179093556040519116919082907f8be0079c531659141344cd1fd0a4f28419497f9722a3daafe3b4186f6b6457e090600090a35050565b82805462000161906200024e565b90600052602060002090601f016020900481019282620001855760008555620001d0565b82601f10620001a057805160ff1916838001178555620001d0565b82800160010185558215620001d0579182015b82811115620001d0578251825591602001919060010190620001b3565b50620001de929150620001e2565b5090565b5b80821115620001de5760008155600101620001e3565b80516001600160a01b03811681146200021157600080fd5b919050565b600080604083850312156200022a57600080fd5b6200023583620001f9565b91506200024560208401620001f9565b90509250929050565b600181811c908216806200026357607f821691505b602082108114156200028557634e487b7160e01b600052602260045260246000fd5b50919050565b60805160601c611ff5620002bf6000396000818161054c015281816108a401528181610b0a0152610d270152611ff56000f3fe6080604052600436106101e35760003560e01c80636f9fb98a11610102578063b011098611610095578063e33f76cf11610064578063e33f76cf1461053a578063e985e9c51461056e578063f2fde38b146105b7578063f770031c146105d757600080fd5b8063b0110986146104ba578063b88d4fde146104da578063c87b56dd146104fa578063e1b1d0b21461051a57600080fd5b8063953581b5116100d1578063953581b51461045957806395d89b411461046f578063a22cb46514610484578063a993efbc146104a457600080fd5b80636f9fb98a146103f357806370a0823114610406578063715018a6146104265780638da5cb5b1461043b57600080fd5b80633d8712291161017a5780634fd53596116101495780634fd53596146103805780635ebd7a181461039357806361dcb054146103b35780636352211e146103d357600080fd5b80633d8712291461030857806342842e0e1461031d57806343f013cf1461033d57806344eaefac1461036a57600080fd5b806323b872dd116101b657806323b872dd146102995780632e61a7bf146102b9578063305e3552146102ce578063329b12d3146102f257600080fd5b806301ffc9a7146101e857806306fdde031461021d578063081812fc1461023f578063095ea7b314610277575b600080fd5b3480156101f457600080fd5b50610208610203366004611c07565b61060d565b60405190151581526020015b60405180910390f35b34801561022957600080fd5b5061023261065f565b6040516102149190611d8e565b34801561024b57600080fd5b5061025f61025a366004611c41565b6106f1565b6040516001600160a01b039091168152602001610214565b34801561028357600080fd5b50610297610292366004611bdd565b610718565b005b3480156102a557600080fd5b506102976102b4366004611a89565b610833565b3480156102c557600080fd5b50610297610864565b3480156102da57600080fd5b506102e4600a5481565b604051908152602001610214565b3480156102fe57600080fd5b506102e4600f5481565b34801561031457600080fd5b50600c546102e4565b34801561032957600080fd5b50610297610338366004611a89565b610a4a565b34801561034957600080fd5b506102e4610358366004611c41565b60096020526000908152604090205481565b34801561037657600080fd5b506102e4600e5481565b61029761038e366004611c41565b610a65565b34801561039f57600080fd5b506102976103ae366004611c41565b610bb1565b3480156103bf57600080fd5b506102976103ce366004611c41565b610d98565b3480156103df57600080fd5b5061025f6103ee366004611c41565b610ee2565b3480156103ff57600080fd5b50476102e4565b34801561041257600080fd5b506102e4610421366004611a3b565b610f42565b34801561043257600080fd5b50610297610fc8565b34801561044757600080fd5b506006546001600160a01b031661025f565b34801561046557600080fd5b506102e4600d5481565b34801561047b57600080fd5b50610232610fdc565b34801561049057600080fd5b5061029761049f366004611ba1565b610feb565b3480156104b057600080fd5b506102e4600c5481565b3480156104c657600080fd5b506102e46104d5366004611c41565b610ffa565b3480156104e657600080fd5b506102976104f5366004611ac5565b61101b565b34801561050657600080fd5b50610232610515366004611c41565b611053565b34801561052657600080fd5b50610297610535366004611c41565b6110c7565b34801561054657600080fd5b5061025f7f000000000000000000000000000000000000000000000000000000000000000081565b34801561057a57600080fd5b50610208610589366004611a56565b6001600160a01b03918216600090815260056020908152604080832093909416825291909152205460ff1690565b3480156105c357600080fd5b506102976105d2366004611a3b565b6110d4565b3480156105e357600080fd5b5061025f6105f2366004611c41565b6008602052600090815260409020546001600160a01b031681565b60006001600160e01b031982166380ac58cd60e01b148061063e57506001600160e01b03198216635b5e139f60e01b145b8061065957506301ffc9a760e01b6001600160e01b03198316145b92915050565b60606000805461066e90611ee7565b80601f016020809104026020016040519081016040528092919081815260200182805461069a90611ee7565b80156106e75780601f106106bc576101008083540402835291602001916106e7565b820191906000526020600020905b8154815290600101906020018083116106ca57829003601f168201915b5050505050905090565b60006106fc8261114d565b506000908152600460205260409020546001600160a01b031690565b600061072382610ee2565b9050806001600160a01b0316836001600160a01b031614156107965760405162461bcd60e51b815260206004820152602160248201527f4552433732313a20617070726f76616c20746f2063757272656e74206f776e656044820152603960f91b60648201526084015b60405180910390fd5b336001600160a01b03821614806107b257506107b28133610589565b6108245760405162461bcd60e51b815260206004820152603e60248201527f4552433732313a20617070726f76652063616c6c6572206973206e6f7420746f60448201527f6b656e206f776e6572206e6f7220617070726f76656420666f7220616c6c0000606482015260840161078d565b61082e83836111ac565b505050565b61083d338261121a565b6108595760405162461bcd60e51b815260040161078d90611df3565b61082e838383611299565b600260075414156108875760405162461bcd60e51b815260040161078d90611e41565b60026007556040516370a0823160e01b81523360048201526001907f00000000000000000000000000000000000000000000000000000000000000006001600160a01b0316906370a082319060240160206040518083038186803b1580156108ee57600080fd5b505afa158015610902573d6000803e3d6000fd5b505050506040513d601f19601f820116820180604052508101906109269190611c5a565b101561094557604051636c308a2f60e01b815260040160405180910390fd5b6000600c6000815461095690611f22565b9182905550905060005b600b548110156109ba5781600b828154811061097e5761097e611f7d565b906000526020600020015414156109a85760405163119b4fd360e11b815260040160405180910390fd5b806109b281611f22565b915050610960565b50600081815260086020526040812080546001600160a01b03191633908117909155600b805460018101825592527f0175b7a638427703f0dbe7bb9bbf987a2551717b34e79f33b5b1008d1fa01db9909101829055610a199082611435565b6040517fa38da27c8afea1e833812265c5f9c3f1def6eaf2e7d9b42c1b4d9d8ea69b0b7590600090a1506001600755565b61082e8383836040518060200160405280600081525061101b565b60026007541415610a885760405162461bcd60e51b815260040161078d90611e41565b6002600755600a54600090610a9d9034611e90565b9050808214610aee5760405162461bcd60e51b815260206004820152601f60248201527f596f75206861766520746f2070617920666f722074686f736520656767732100604482015260640161078d565b6040516340c10f1960e01b8152336004820152602481018290527f00000000000000000000000000000000000000000000000000000000000000006001600160a01b0316906340c10f1990604401600060405180830381600087803b158015610b5657600080fd5b505af1158015610b6a573d6000803e3d6000fd5b505060408051338152602081018590527fecedcda9002dd5028204a70dddaa2155459b6dff3c3e20543450a189e736dc49935001905060405180910390a150506001600755565b600e546000828152600960205260409020548290610bd0908390611e78565b4211610c2c5760405162461bcd60e51b815260206004820152602560248201527f596f75206861766520746f207761697420746f2063726561746520656767732060448201526430b3b0b4b760d91b606482015260840161078d565b60026007541415610c4f5760405162461bcd60e51b815260040161078d90611e41565b60026007556000838152600860205260409020546001600160a01b03163314610ca95760405162461bcd60e51b815260206004820152600c60248201526b155b985d5d1a1bdc9a5e995960a21b604482015260640161078d565b600f54610cb66064611577565b11610ce557600083815260086020526040902080546001600160a01b0319169055610ce0836115cb565b610d8e565b6000610cf2600d54611577565b600085815260096020526040902042905590508015610d8c576040516340c10f1960e01b8152336004820152602481018290527f00000000000000000000000000000000000000000000000000000000000000006001600160a01b0316906340c10f1990604401600060405180830381600087803b158015610d7357600080fd5b505af1158015610d87573d6000803e3d6000fd5b505050505b505b5050600160075550565b60026007541415610dbb5760405162461bcd60e51b815260040161078d90611e41565b60026007556000818152600860205260409020546001600160a01b03163314610e155760405162461bcd60e51b815260206004820152600c60248201526b155b985d5d1a1bdc9a5e995960a21b604482015260640161078d565b600081815260086020526040902080546001600160a01b0319169055610e3a816115cb565b6040516000903390660e35fa931a0000908381818185875af1925050503d8060008114610e83576040519150601f19603f3d011682016040523d82523d6000602084013e610e88565b606091505b5050905080610ed95760405162461bcd60e51b815260206004820152601960248201527f57686f6f70732c20746869732063616c6c206661696c65642100000000000000604482015260640161078d565b50506001600755565b6000818152600260205260408120546001600160a01b0316806106595760405162461bcd60e51b8152602060048201526018602482015277115490cdcc8c4e881a5b9d985b1a59081d1bdad95b88125160421b604482015260640161078d565b60006001600160a01b038216610fac5760405162461bcd60e51b815260206004820152602960248201527f4552433732313a2061646472657373207a65726f206973206e6f7420612076616044820152683634b21037bbb732b960b91b606482015260840161078d565b506001600160a01b031660009081526003602052604090205490565b610fd0611666565b610fda60006116c0565b565b60606001805461066e90611ee7565b610ff6338383611712565b5050565b600b818154811061100a57600080fd5b600091825260209091200154905081565b611025338361121a565b6110415760405162461bcd60e51b815260040161078d90611df3565b61104d848484846117e1565b50505050565b606061105e8261114d565b600061107560408051602081019091526000815290565b9050600081511161109557604051806020016040528060008152506110c0565b8061109f84611814565b6040516020016110b0929190611c9f565b6040516020818303038152906040525b9392505050565b6110cf611666565b600a55565b6110dc611666565b6001600160a01b0381166111415760405162461bcd60e51b815260206004820152602660248201527f4f776e61626c653a206e6577206f776e657220697320746865207a65726f206160448201526564647265737360d01b606482015260840161078d565b61114a816116c0565b50565b6000818152600260205260409020546001600160a01b031661114a5760405162461bcd60e51b8152602060048201526018602482015277115490cdcc8c4e881a5b9d985b1a59081d1bdad95b88125160421b604482015260640161078d565b600081815260046020526040902080546001600160a01b0319166001600160a01b03841690811790915581906111e182610ee2565b6001600160a01b03167f8c5be1e5ebec7d5bd14f71427d1e84f3dd0314c0f7b2291e5b200ac8c7c3b92560405160405180910390a45050565b60008061122683610ee2565b9050806001600160a01b0316846001600160a01b0316148061126d57506001600160a01b0380821660009081526005602090815260408083209388168352929052205460ff165b806112915750836001600160a01b0316611286846106f1565b6001600160a01b0316145b949350505050565b826001600160a01b03166112ac82610ee2565b6001600160a01b0316146113105760405162461bcd60e51b815260206004820152602560248201527f4552433732313a207472616e736665722066726f6d20696e636f72726563742060448201526437bbb732b960d91b606482015260840161078d565b6001600160a01b0382166113725760405162461bcd60e51b8152602060048201526024808201527f4552433732313a207472616e7366657220746f20746865207a65726f206164646044820152637265737360e01b606482015260840161078d565b61137d6000826111ac565b6001600160a01b03831660009081526003602052604081208054600192906113a6908490611ea4565b90915550506001600160a01b03821660009081526003602052604081208054600192906113d4908490611e78565b909155505060008181526002602052604080822080546001600160a01b0319166001600160a01b0386811691821790925591518493918716917fddf252ad1be2c89b69c2b068fc378daa952ba7f163c4a11628f55a4df523b3ef91a4505050565b6001600160a01b03821661148b5760405162461bcd60e51b815260206004820181905260248201527f4552433732313a206d696e7420746f20746865207a65726f2061646472657373604482015260640161078d565b6000818152600260205260409020546001600160a01b0316156114f05760405162461bcd60e51b815260206004820152601c60248201527f4552433732313a20746f6b656e20616c7265616479206d696e74656400000000604482015260640161078d565b6001600160a01b0382166000908152600360205260408120805460019290611519908490611e78565b909155505060008181526002602052604080822080546001600160a01b0319166001600160a01b03861690811790915590518392907fddf252ad1be2c89b69c2b068fc378daa952ba7f163c4a11628f55a4df523b3ef908290a45050565b600080611585836001611e78565b600c546040516115a8914491429141914591469148914391600b90602001611cce565b6040516020818303038152906040528051906020012060001c6110c09190611f3d565b60006115d682610ee2565b90506115e36000836111ac565b6001600160a01b038116600090815260036020526040812080546001929061160c908490611ea4565b909155505060008281526002602052604080822080546001600160a01b0319169055518391906001600160a01b038416907fddf252ad1be2c89b69c2b068fc378daa952ba7f163c4a11628f55a4df523b3ef908390a45050565b6006546001600160a01b03163314610fda5760405162461bcd60e51b815260206004820181905260248201527f4f776e61626c653a2063616c6c6572206973206e6f7420746865206f776e6572604482015260640161078d565b600680546001600160a01b038381166001600160a01b0319831681179093556040519116919082907f8be0079c531659141344cd1fd0a4f28419497f9722a3daafe3b4186f6b6457e090600090a35050565b816001600160a01b0316836001600160a01b031614156117745760405162461bcd60e51b815260206004820152601960248201527f4552433732313a20617070726f766520746f2063616c6c657200000000000000604482015260640161078d565b6001600160a01b03838116600081815260056020908152604080832094871680845294825291829020805460ff191686151590811790915591519182527f17307eab39ab6107e8899845ad3d59bd9653f200f220920489ca2b5937696c31910160405180910390a3505050565b6117ec848484611299565b6117f884848484611912565b61104d5760405162461bcd60e51b815260040161078d90611da1565b6060816118385750506040805180820190915260018152600360fc1b602082015290565b8160005b8115611862578061184c81611f22565b915061185b9050600a83611e90565b915061183c565b60008167ffffffffffffffff81111561187d5761187d611f93565b6040519080825280601f01601f1916602001820160405280156118a7576020820181803683370190505b5090505b8415611291576118bc600183611ea4565b91506118c9600a86611f3d565b6118d4906030611e78565b60f81b8183815181106118e9576118e9611f7d565b60200101906001600160f81b031916908160001a90535061190b600a86611e90565b94506118ab565b60006001600160a01b0384163b15611a1457604051630a85bd0160e11b81526001600160a01b0385169063150b7a0290611956903390899088908890600401611d51565b602060405180830381600087803b15801561197057600080fd5b505af19250505080156119a0575060408051601f3d908101601f1916820190925261199d91810190611c24565b60015b6119fa573d8080156119ce576040519150601f19603f3d011682016040523d82523d6000602084013e6119d3565b606091505b5080516119f25760405162461bcd60e51b815260040161078d90611da1565b805181602001fd5b6001600160e01b031916630a85bd0160e11b149050611291565b506001949350505050565b80356001600160a01b0381168114611a3657600080fd5b919050565b600060208284031215611a4d57600080fd5b6110c082611a1f565b60008060408385031215611a6957600080fd5b611a7283611a1f565b9150611a8060208401611a1f565b90509250929050565b600080600060608486031215611a9e57600080fd5b611aa784611a1f565b9250611ab560208501611a1f565b9150604084013590509250925092565b60008060008060808587031215611adb57600080fd5b611ae485611a1f565b9350611af260208601611a1f565b925060408501359150606085013567ffffffffffffffff80821115611b1657600080fd5b818701915087601f830112611b2a57600080fd5b813581811115611b3c57611b3c611f93565b604051601f8201601f19908116603f01168101908382118183101715611b6457611b64611f93565b816040528281528a6020848701011115611b7d57600080fd5b82602086016020830137600060208483010152809550505050505092959194509250565b60008060408385031215611bb457600080fd5b611bbd83611a1f565b915060208301358015158114611bd257600080fd5b809150509250929050565b60008060408385031215611bf057600080fd5b611bf983611a1f565b946020939093013593505050565b600060208284031215611c1957600080fd5b81356110c081611fa9565b600060208284031215611c3657600080fd5b81516110c081611fa9565b600060208284031215611c5357600080fd5b5035919050565b600060208284031215611c6c57600080fd5b5051919050565b60008151808452611c8b816020860160208601611ebb565b601f01601f19169290920160200192915050565b60008351611cb1818460208801611ebb565b835190830190611cc5818360208801611ebb565b01949350505050565b898152600060208a818401526bffffffffffffffffffffffff198a60601b1660408401528860548401528760748401528660948401528560b48401528460d484015260f483018454856000528260002060005b82811015611d3d57815484529284019260019182019101611d21565b50919e9d5050505050505050505050505050565b6001600160a01b0385811682528416602082015260408101839052608060608201819052600090611d8490830184611c73565b9695505050505050565b6020815260006110c06020830184611c73565b60208082526032908201527f4552433732313a207472616e7366657220746f206e6f6e20455243373231526560408201527131b2b4bb32b91034b6b83632b6b2b73a32b960711b606082015260800190565b6020808252602e908201527f4552433732313a2063616c6c6572206973206e6f7420746f6b656e206f776e6560408201526d1c881b9bdc88185c1c1c9bdd995960921b606082015260800190565b6020808252601f908201527f5265656e7472616e637947756172643a207265656e7472616e742063616c6c00604082015260600190565b60008219821115611e8b57611e8b611f51565b500190565b600082611e9f57611e9f611f67565b500490565b600082821015611eb657611eb6611f51565b500390565b60005b83811015611ed6578181015183820152602001611ebe565b8381111561104d5750506000910152565b600181811c90821680611efb57607f821691505b60208210811415611f1c57634e487b7160e01b600052602260045260246000fd5b50919050565b6000600019821415611f3657611f36611f51565b5060010190565b600082611f4c57611f4c611f67565b500690565b634e487b7160e01b600052601160045260246000fd5b634e487b7160e01b600052601260045260246000fd5b634e487b7160e01b600052603260045260246000fd5b634e487b7160e01b600052604160045260246000fd5b6001600160e01b03198116811461114a57600080fdfea26469706673582212207b7fd13bf0ecb052d114ec27f3477a656016e1e5517cd4235fd7feac21131a7264736f6c63430008070033",
  "devdoc": {
    "kind": "dev",
    "methods": {
      "approve(address,uint256)": {
        "details": "See {IERC721-approve}."
      },
      "balanceOf(address)": {
        "details": "See {IERC721-balanceOf}."
      },
      "getApproved(uint256)": {
        "details": "See {IERC721-getApproved}."
      },
      "isApprovedForAll(address,address)": {
        "details": "See {IERC721-isApprovedForAll}."
      },
      "name()": {
        "details": "See {IERC721Metadata-name}."
      },
      "owner()": {
        "details": "Returns the address of the current owner."
      },
      "ownerOf(uint256)": {
        "details": "See {IERC721-ownerOf}."
      },
      "renounceOwnership()": {
        "details": "Leaves the contract without owner. It will not be possible to call `onlyOwner` functions anymore. Can only be called by the current owner. NOTE: Renouncing ownership will leave the contract without an owner, thereby removing any functionality that is only available to the owner."
      },
      "safeTransferFrom(address,address,uint256)": {
        "details": "See {IERC721-safeTransferFrom}."
      },
      "safeTransferFrom(address,address,uint256,bytes)": {
        "details": "See {IERC721-safeTransferFrom}."
      },
      "setApprovalForAll(address,bool)": {
        "details": "See {IERC721-setApprovalForAll}."
      },
      "supportsInterface(bytes4)": {
        "details": "See {IERC165-supportsInterface}."
      },
      "symbol()": {
        "details": "See {IERC721Metadata-symbol}."
      },
      "tokenURI(uint256)": {
        "details": "See {IERC721Metadata-tokenURI}."
      },
      "transferFrom(address,address,uint256)": {
        "details": "See {IERC721-transferFrom}."
      },
      "transferOwnership(address)": {
        "details": "Transfers ownership of the contract to a new account (`newOwner`). Can only be called by the current owner."
      }
    },
    "version": 1
  },
  "userdoc": {
    "kind": "user",
    "methods": {},
    "version": 1
  },
  "storageLayout": {
    "storage": [
      {
        "astId": 867,
        "contract": "contracts/CryptoAnts.sol:CryptoAnts",
        "label": "_name",
        "offset": 0,
        "slot": "0",
        "type": "t_string_storage"
      },
      {
        "astId": 869,
        "contract": "contracts/CryptoAnts.sol:CryptoAnts",
        "label": "_symbol",
        "offset": 0,
        "slot": "1",
        "type": "t_string_storage"
      },
      {
        "astId": 873,
        "contract": "contracts/CryptoAnts.sol:CryptoAnts",
        "label": "_owners",
        "offset": 0,
        "slot": "2",
        "type": "t_mapping(t_uint256,t_address)"
      },
      {
        "astId": 877,
        "contract": "contracts/CryptoAnts.sol:CryptoAnts",
        "label": "_balances",
        "offset": 0,
        "slot": "3",
        "type": "t_mapping(t_address,t_uint256)"
      },
      {
        "astId": 881,
        "contract": "contracts/CryptoAnts.sol:CryptoAnts",
        "label": "_tokenApprovals",
        "offset": 0,
        "slot": "4",
        "type": "t_mapping(t_uint256,t_address)"
      },
      {
        "astId": 887,
        "contract": "contracts/CryptoAnts.sol:CryptoAnts",
        "label": "_operatorApprovals",
        "offset": 0,
        "slot": "5",
        "type": "t_mapping(t_address,t_mapping(t_address,t_bool))"
      },
      {
        "astId": 7,
        "contract": "contracts/CryptoAnts.sol:CryptoAnts",
        "label": "_owner",
        "offset": 0,
        "slot": "6",
        "type": "t_address"
      },
      {
        "astId": 123,
        "contract": "contracts/CryptoAnts.sol:CryptoAnts",
        "label": "_status",
        "offset": 0,
        "slot": "7",
        "type": "t_uint256"
      },
      {
        "astId": 2503,
        "contract": "contracts/CryptoAnts.sol:CryptoAnts",
        "label": "antToOwner",
        "offset": 0,
        "slot": "8",
        "type": "t_mapping(t_uint256,t_address)"
      },
      {
        "astId": 2507,
        "contract": "contracts/CryptoAnts.sol:CryptoAnts",
        "label": "antToLastTimeEggsCreated",
        "offset": 0,
        "slot": "9",
        "type": "t_mapping(t_uint256,t_uint256)"
      },
      {
        "astId": 2513,
        "contract": "contracts/CryptoAnts.sol:CryptoAnts",
        "label": "eggPrice",
        "offset": 0,
        "slot": "10",
        "type": "t_uint256"
      },
      {
        "astId": 2516,
        "contract": "contracts/CryptoAnts.sol:CryptoAnts",
        "label": "allAntsIds",
        "offset": 0,
        "slot": "11",
        "type": "t_array(t_uint256)dyn_storage"
      },
      {
        "astId": 2519,
        "contract": "contracts/CryptoAnts.sol:CryptoAnts",
        "label": "antsCreated",
        "offset": 0,
        "slot": "12",
        "type": "t_uint256"
      },
      {
        "astId": 2522,
        "contract": "contracts/CryptoAnts.sol:CryptoAnts",
        "label": "eggsCreationMaxNumber",
        "offset": 0,
        "slot": "13",
        "type": "t_uint256"
      },
      {
        "astId": 2525,
        "contract": "contracts/CryptoAnts.sol:CryptoAnts",
        "label": "secondsToWaitAfterEggCreation",
        "offset": 0,
        "slot": "14",
        "type": "t_uint256"
      },
      {
        "astId": 2528,
        "contract": "contracts/CryptoAnts.sol:CryptoAnts",
        "label": "chanceOfDying",
        "offset": 0,
        "slot": "15",
        "type": "t_uint256"
      }
    ],
    "types": {
      "t_address": {
        "encoding": "inplace",
        "label": "address",
        "numberOfBytes": "20"
      },
      "t_array(t_uint256)dyn_storage": {
        "base": "t_uint256",
        "encoding": "dynamic_array",
        "label": "uint256[]",
        "numberOfBytes": "32"
      },
      "t_bool": {
        "encoding": "inplace",
        "label": "bool",
        "numberOfBytes": "1"
      },
      "t_mapping(t_address,t_bool)": {
        "encoding": "mapping",
        "key": "t_address",
        "label": "mapping(address => bool)",
        "numberOfBytes": "32",
        "value": "t_bool"
      },
      "t_mapping(t_address,t_mapping(t_address,t_bool))": {
        "encoding": "mapping",
        "key": "t_address",
        "label": "mapping(address => mapping(address => bool))",
        "numberOfBytes": "32",
        "value": "t_mapping(t_address,t_bool)"
      },
      "t_mapping(t_address,t_uint256)": {
        "encoding": "mapping",
        "key": "t_address",
        "label": "mapping(address => uint256)",
        "numberOfBytes": "32",
        "value": "t_uint256"
      },
      "t_mapping(t_uint256,t_address)": {
        "encoding": "mapping",
        "key": "t_uint256",
        "label": "mapping(uint256 => address)",
        "numberOfBytes": "32",
        "value": "t_address"
      },
      "t_mapping(t_uint256,t_uint256)": {
        "encoding": "mapping",
        "key": "t_uint256",
        "label": "mapping(uint256 => uint256)",
        "numberOfBytes": "32",
        "value": "t_uint256"
      },
      "t_string_storage": {
        "encoding": "bytes",
        "label": "string",
        "numberOfBytes": "32"
      },
      "t_uint256": {
        "encoding": "inplace",
        "label": "uint256",
        "numberOfBytes": "32"
      }
    }
  }
}